:100000000C942A000C94BB000C94BB000C94BB0015
:100010000C94BB000C94BB000C94BB000C94BB0074
:100020000C94BB000C94BB000C94BB000C94BB0064
:100030000C94BB000C94BB000C94BB000C94BB0054
:100040000C94BB000C94BB000C94BB000C94BB0044
:100050000C94BB0011241FBECFE5D8E0DEBFCDBF9E
:0C0060000E949E000C94B000F894FFCFAA
:10006C00813089F028F08230C9F0833011F1089585
:10007C002AB381E090E002C0880F991F6A95E2F7DD
:10008C00822B8ABB089527B381E090E002C0880FD1
:10009C00991F6A95E2F7822B87BB089524B381E000
:1000AC0090E002C0880F991F6A95E2F7822B84BBFF
:1000BC00089521B381E090E002C0880F991F6A95E2
:0800CC00E2F7822B81BB0895CD
:1000D400813089F028F08230C9F0833011F108951D
:1000E4002BB381E090E002C0880F991F6A95E2F774
:1000F40082278BBB089528B381E090E002C0880F6B
:10010400991F6A95E2F7822788BB089525B381E099
:1001140090E002C0880F991F6A95E2F7822785BB99
:10012400089522B381E090E002C0880F991F6A9578
:08013400E2F7822782BB089567
:10013C0060E080E00E94360060E080E00E946A008F
:10014C002FE986E891E0215080409040E1F700C013
:04015C000000F2CFDE
:10016000EC010E94C0000E94BF00CE010E94C100AD
:06017000CE010E94BD005B
:040176000C940000E5
:04017A000E943400AB
:02017E000895E2
:020180000895E0
:020182000895DE
:00000001FF
